:020000040800F2
:1000000068080020290200083102000833020008B5
:10001000350200083702000839020008000000001D
:100020000000000000000000000000003B0200088B
:100030003D020008000000003F02000841020008E5
:10004000430200084302000843020008430200087C
:10005000430200084302000843020008430200086C
:10006000430200084302000843020008430200085C
:10007000430200084302000843020008430200084C
:10008000430200084302000843020008430200083C
:10009000430200084302000843020008430200082C
:1000A000430200084302000843020008430200081C
:1000B000430200084302000843020008430200080C
:1000C00043020008430200084302000843020008FC
:1000D00043020008430200084302000843020008EC
:1000E00043020008430200084302000843020008DC
:1000F00043020008430200084302000843020008CC
:1001000043020008430200084302000843020008BB
:1001100043020008430200084302000843020008AB
:10012000430200084302000843020008430200089B
:10013000430200084302000843020008430200088B
:10014000430200084302000843020008430200087B
:100150004302000843020008430200084D0600085D
:10016000430200084302000843020008430200085B
:10017000430200084302000843020008430200084B
:10018000430200084302000800F002F800F03CF8C7
:100190000AA090E8000C82448344AAF10107DA45E2
:1001A00001D100F031F8AFF2090EBAE80F0013F0F8
:1001B000010F18BFFB1A43F0010318474408000061
:1001C00064080000103A24BF78C878C1FAD85207F2
:1001D00024BF30C830C144BF04680C6070470000C1
:1001E0000023002400250026103A28BF78C1FBD840
:1001F000520728BF30C148BF0B6070471FB500F0E1
:10020000F9FB1FBD10B510BD00F031F81146FFF726
:10021000F5FF00F041FB00F04FF803B4FFF7F2FFE9
:1002200003BC00F057F80000094880470948004720
:10023000FEE7FEE7FEE7FEE7FEE7FEE7FEE7FEE796
:10024000FEE7FEE704480549054A064B70470000F3
:10025000E505000889010008680200206808002000
:100260006804002068040020704770477047754696
:1002700000F02CF8AE4605006946534620F0070012
:10028000854618B020B5FFF7DDFFBDE820404FF0F0
:1002900000064FF000074FF000084FF0000B21F070
:1002A0000701AC46ACE8C009ACE8C009ACE8C0093D
:1002B000ACE8C0098D46704710B50446AFF3008026
:1002C0002046BDE81040FFF7A8BF00000048704777
:1002D0000802002001491820ABBEFEE726000200FC
:1002E000704700004D48006840F00F004B4908601F
:1002F0004B48006820F440504949086008460068AF
:1003000040F400500860081D006820F04000091DFE
:10031000086043480C30006820F4405040490C31DC
:1003200008600846006840F480500860081F0068B4
:1003300020F44050091F08600846006840F440500F
:1003400008603748006820F4404035490860084696
:10035000006840F400400860081D006820F080003C
:10036000091D08602E480C30006820F440402C49DC
:100370000C310860081F006820F44040091F086025
:100380000846006840F4404008602648006820F0B5
:100390004040244908600846006840F080400860FA
:1003A000081D006820F40040091D08601D480C303D
:1003B000006820F040401B490C310860081F0068AD
:1003C00020F04040091F08600846006840F04040A7
:1003D00008601448006820F0405012490860084640
:1003E000006840F080500860081D006820F48040DC
:1003F000091D08600B480C30006820F04050094986
:100400000C310860081F006820F04050091F086088
:100410000846006840F0405008607047303802409D
:1004200000080240000C024000F01F020121914030
:100430004209920002F1E022C2F800117047000068
:100440001C48006840F090001A490860084600689F
:1004500020F0F00008600846006820F00300086003
:100460000846006840F0020008600846006820F472
:10047000E05008600846006840F4A0500860084654
:10048000006820F4E05008600846006808600948E9
:100490000838006840F08070064908390860081D77
:1004A000006820F48000091D0860084600680860A4
:1004B00070470000083802400CB500200190009001
:1004C0003448006840F480303249086000BF314849
:1004D000006800F4003000900198401C01900098E2
:1004E00018B90198B0F5A04FF1D12A48006800F47E
:1004F000003010B10120009001E000200090009831
:10050000012846D123484030006840F080502149FE
:10051000403108602048006840F440401E490860AF
:100520001C48083000681B4908310860084600680C
:1005300040F4004008600846006840F4A05008609D
:100540001648091F0860081F006840F08070091FE6
:10055000086000BF0F48006800F000700028F9D064
:1005600040F205700E4908600A480830006820F023
:1005700003000849083108600846006840F002009E
:10058000086000BF03480830006800F00C0008282D
:10059000F8D10CBD00380240007000400830400423
:1005A000003C0240F0B54D07ED0E02FA05F3456A36
:1005B0004E07F70E0F26BE40B5434562084DCE10DC
:1005C00055F8265045EA0304CE1000F1200555F8F1
:1005D00026502543CF1000F1200646F82750F0BDE5
:1005E000200C024010B51548006840F47000134913
:1005F00008601348006840F00100114908600020BD
:100600000F49083108600E4800680E4908400C493F
:1006100008600D48091D0860081F006820F480204C
:10062000091F0860002006490C310860FFF744FFED
:100630004FF0006001498039086010BD88ED00E08E
:1006400000380240FFFFF6FE1030002410B50024F1
:100650002448008840F0200022490880081D0088B6
:10066000C4B20D2C17D120A11E4800F0C7F81FA15D
:100670001C4800F0C3F81F491A4800F0BFF81AA13F
:10068000184800F0BBF81B481B49086000F0F6F85A
:1006900000F0E8F81FE07F2C11D17F21114800F015
:1006A0009DF8154800681349884214D9124800681B
:1006B000401E114908600020096808700BE02146BF
:1006C000084800F08BF80C48006804700A4800687D
:1006D000401C094908600948006880F480400749C7
:1006E000086010BD001401400A0D0000636D642015
:1006F0003E3E20000800002000000020140C0240B4
:1007000010B504462F48844205D12F48006840F0B8
:1007100010002D4908602D48844207D12A48001F47
:10072000006840F400302849091F086028488442C6
:1007300007D12548001F006840F480202249091F86
:1007400008602448844205D11F48006840F020001A
:100750001D490860A08920F48050A081208A20F4DF
:10076000405020821C494FF4E13000F063F82081B2
:10077000A08940F00400A081A08940F00800A08179
:10078000A08940F02000A081A08940F40050A08101
:100790000C48844202D12520FFF746FE0B488442D4
:1007A00002D12620FFF740FE0948844202D12720CB
:1007B000FFF73AFE0748844202D14720FFF734FE94
:1007C00010BD0000001001404438024000440040C9
:1007D0000048004000140140006CDC02818000BF32
:1007E000028802F04002002AFAD0034A126882F41A
:1007F0000042014B1A607047140C024014E00C4A8E
:10080000126842F400420A4B1A6011F8012B8280F0
:1008100000BF028802F04002002AFAD0044A12689F
:1008200022F40042024B1A600A78002AE7D170478E
:10083000140C02402DE9F0412DED028B04460D46CB
:10084000B5FBF4F7384600F074F841EC180B51ECA6
:10085000180B00F041F806463046BDEC028BBDE8AF
:10086000F0810000002003E00021034A1154401CE5
:10087000FF28F9DB7047000008000020002004E09A
:100880000349095C034A1154401CFF28F8DB7047F8
:10089000080000200701002062B6FFF7D1FDFFF736
:1008A00021FD0A48006820F44040084908600848D3
:1008B000FFF726FF082206210648FFF773FE0822ED
:1008C00007210448FFF76EFE00BFFEE7140C02404C
:1008D00000140140000802404FEA1153A3F5806361
:1008E000D3F11E03A8BFD3F1200C08DB4FF0004268
:1008F00042EAC12252EA505232FA03F070470942EA
:100900000BD4102BC4BF0020704703F5787CBCF1DA
:10091000FF3F05D04FF0FF3070474FF000007047A9
:1009200070B500F019F800BF49922480002070478C
:10093000F0E7B0FA80F310FA03F10AD0C3F11D0317
:1009400003F580634FEA41504FEA035202EBD12195
:1009500070474FF0000070470EF1020E2EF0030EAC
:100960005EF8046B364205D4012A43EB030515F506
:10097000001F12D8012841EB010C1CF5001F0CD8F8
:100980000ED14FEAD17C15F5001F0CEB4C0C0CF18D
:10099000020C08BF4CEBD37C04E04FF0080C01E0E4
:1009A0004FEAD37C0CEB4C0526FA05F606F0070659
:1009B000B6F1040C06D20EEB860CBDE870404CF08C
:1009C000010C6047DFE80CF0090B02024FF0004118
:1009D0004FF00000A1F5002170BD19461046012816
:1009E00051EB010418BFD4F5001484BF002001F0BE
:1009F000004170BD4FF04070E1EE100A70470000FA
:100A0000200A00080000002008000000C4010008BF
:100A1000280A00080800002060080000E001000823
:080A200008000020070100207E
:040000050800018965
:00000001FF
