:020000040800F2
:10000000E00C002029020008310200083302000839
:10001000350200083702000839020008000000001D
:100020000000000000000000000000003B0200088B
:100030003D020008000000003F02000841020008E5
:10004000430200084302000843020008430200087C
:10005000430200084302000843020008430200086C
:10006000430200084302000843020008430200085C
:10007000430200084302000843020008430200084C
:10008000430200084302000843020008430200083C
:10009000430200084302000843020008430200082C
:1000A000430200084302000843020008430200081C
:1000B000430200084302000843020008430200080C
:1000C00043020008430200084302000843020008FC
:1000D00043020008430200084302000843020008EC
:1000E00043020008430200084302000843020008DC
:1000F00043020008430200084302000843020008CC
:1001000043020008430200084302000843020008BB
:1001100043020008430200084302000843020008AB
:10012000430200084302000843020008430200089B
:10013000430200084302000843020008430200088B
:10014000430200084302000843020008430200087B
:100150004302000843020008430200084107000868
:10016000430200084302000843020008430200085B
:10017000430200084302000843020008430200084B
:10018000430200084302000800F002F800F03CF8C7
:100190000AA090E8000C82448344AAF10107DA45E2
:1001A00001D100F031F8AFF2090EBAE80F0013F0F8
:1001B000010F18BFFB1A43F0010318473C0F000062
:1001C0005C0F0000103A24BF78C878C1FAD85207F3
:1001D00024BF30C830C144BF04680C6070470000C1
:1001E0000023002400250026103A28BF78C1FBD840
:1001F000520728BF30C148BF0B6070471FB500F0E1
:100200003BFD1FBD10B510BD00F0ABF81146FFF768
:10021000F5FF00F0DFFB00F0C9F803B4FFF7F2FFD1
:1002200003BC00F0D1F800000948804709480047A6
:10023000FEE7FEE7FEE7FEE7FEE7FEE7FEE7FEE796
:10024000FEE7FEE704480549054A064B70470000F3
:10025000D906000889010008E0060020E00C002013
:10026000E0080020E008002030B505460B462A468D
:1002700013F8014B12F8010B08B1A042F8D01CB1E1
:10028000002802D06D1CF1E7284630BD4FF0000277
:1002900000B5134694469646203922BFA0E80C507C
:1002A000A0E80C50B1F12001BFF4F7AF090728BF57
:1002B000A0E80C5048BF0CC05DF804EB890028BFD3
:1002C00040F8042B08BF704748BF20F8022B11F0FC
:1002D000804F18BF00F8012B704700004FF0013C21
:1002E00050F8042B51F8043B9A4221D1A2EB0C03A5
:1002F000934313EACC1317D150F8042B51F8043B65
:100300009A4215D1A2EB0C03934313EACC130BD101
:1003100050F8042B51F8043B9A4209D1A2EB0C038C
:10032000934313EACC13DBD04FF00000704700BFBB
:10033000D01A01BAB1FA81F101F0180122FA01F0E4
:10034000CB40C1F12001DBB2C0B2C01A2CFA01F3DC
:10035000D11A914311EAC311E6D170477047704733
:100360007047754600F02CF8AE46050069465346C6
:1003700020F00700854618B020B5FFF763FFBDE801
:1003800020404FF000064FF000074FF000084FF0FC
:10039000000B21F00701AC46ACE8C009ACE8C0098D
:1003A000ACE8C009ACE8C0098D46704710B50446FA
:1003B000AFF300802046BDE81040FFF72EBF0000DD
:1003C000004870478006002001491820ABBEFEE7B8
:1003D00026000200704700004D48006840F00F0002
:1003E0004B4908604B48006820F440504949086078
:1003F0000846006840F400500860081D006820F0BE
:100400004000091D086043480C30006820F440504B
:1004100040490C3108600846006840F4805008608C
:10042000081F006820F44050091F08600846006853
:1004300040F4405008603748006820F44040354997
:1004400008600846006840F400400860081D006825
:1004500020F08000091D08602E480C30006820F450
:1004600040402C490C310860081F006820F44040CF
:10047000091F08600846006840F4404008602648AC
:10048000006820F04040244908600846006840F0B9
:1004900080400860081D006820F40040091D0860C5
:1004A0001D480C30006820F040401B490C310860AA
:1004B000081F006820F04040091F086008460068D7
:1004C00040F0404008601448006820F04050124955
:1004D00008600846006840F080500860081D006809
:1004E00020F48040091D08600B480C30006820F0A3
:1004F000405009490C310860081F006820F0405046
:10050000091F08600846006840F0405008607047C6
:100510003038024000080240000C024000F01F0288
:10052000012191404209920002F1E022C2F800113B
:10053000704700001C48006840F090001A490860AD
:100540000846006820F0F00008600846006820F0C7
:10055000030008600846006840F002000860084692
:10056000006820F4E05008600846006840F4A0509D
:1005700008600846006820F4E050086008460068FB
:10058000086009480838006840F08070064908395A
:100590000860081D006820F48000091D08600846F6
:1005A0000068086070470000083802400CB5002061
:1005B000019000903448006840F48030324908606F
:1005C00000BF3148006800F4003000900198401CE2
:1005D0000190009818B90198B0F5A04FF1D12A48C0
:1005E000006800F4003010B10120009001E000200C
:1005F00000900098012846D123484030006840F020
:1006000080502149403108602048006840F4404053
:100610001E4908601C48083000681B490831086002
:100620000846006840F4004008600846006840F44E
:10063000A05008601648091F0860081F006840F0B5
:100640008070091F086000BF0F48006800F000704C
:100650000028F9D040F205700E4908600A480830B9
:10066000006820F003000849083108600846006867
:1006700040F00200086000BF03480830006800F046
:100680000C000828F8D10CBD003802400070004072
:1006900008304004003C0240F0B54D07ED0E02FA70
:1006A00005F3456A4E07F70E0F26BE40B543456277
:1006B000084DCE1055F8265045EA0304CE1000F13F
:1006C000200555F826502543CF1000F1200646F8A6
:1006D0002750F0BD200C024010B51548006840F4CA
:1006E0007000134908601348006840F00100114988
:1006F000086000200F49083108600E4800680E4964
:1007000008400C4908600D48091D0860081F006872
:1007100020F48020091F0860002006490C31086081
:10072000FFF744FF4FF0006001498039086010BDB9
:1007300088ED00E000380240FFFFF6FE1030002494
:1007400010B500241E48008840F020001C49088095
:10075000081D0088C4B20D2C0DD11AA000F0B8F904
:1007600019481A49086000F0C7F900F0E5F80120BF
:10077000174908701DE07F2C10D1144800681249F9
:10078000884216D97F2000F0ADF910480068401E5D
:100790000E4908600020096808700AE0204600F051
:1007A000A1F90A480068047008480068401C07491D
:1007B00008600848006880F480400649086010BD61
:1007C000001401400A0D0000540000200400002025
:1007D00000000020140C024010B50446304884424A
:1007E00005D13048006840F010002E4908602E48BE
:1007F000844207D12B48001F006840F4003029498B
:10080000091F08602948844207D12648001F006854
:1008100040F480202349091F08602548844205D1FF
:100820002048006840F020001E490860A08920F49C
:100830008050A081208A20F4405020821D494FF42E
:10084000E13000F061F82081A08940F00400A0812F
:10085000A08940F00800A081A08940F02000A0817C
:10086000A08940F40050A0810D48844202D1252087
:10087000FFF754FE0C48844202D12620FFF74EFEBB
:100880000A48844202D12720FFF748FE08488442E4
:1008900002D14720FFF742FE0748046010BD000068
:1008A000001001404438024000440040004800402D
:1008B00000140140006CDC020C000020818000BFAD
:1008C000028802F04002002AFAD0034A126882F439
:1008D0000042014B1A607047140C02400EE011F800
:1008E000012B828000BF028802F04002002AFAD069
:1008F000044A126882F40042024B1A600A78002A05
:10090000EDD17047140C02402DE9F0412DED028B22
:1009100004460D46B5FBF4F7384600F04CF941ECBF
:10092000180B51EC180B00F019F906463046BDECD7
:10093000028BBDE8F0810000002003E00021034AA3
:100940001154401CFF28F9DB7047000054000020C0
:1009500070B50546002410E00A4800EB0411284653
:10096000FFF782FC40B1074800EB04112846FFF76F
:10097000B5FC08B9E0B270BD641C032CECDB0020B0
:10098000F9E7000010000020F8B506460D460FA05C
:100990000068009069463046FFF766FC80B100248D
:1009A0000BE004EB84000A4A02EB40013046FFF7FB
:1009B0005BFC08B185F80141641C022CF1DB02E00C
:1009C0004FF0FF30F8BD0020FCE700002D000000D4
:1009D0004000002062B6FFF7ADFDFFF7FDFC0D48BB
:1009E000006820F440400B4908600B48FFF7F4FE14
:1009F000082206210948FFF74FFE08220721074871
:100A0000FFF74AFE06A000F063F802E0064800F097
:100A10000DF8FBE7140C02400014014000080240EE
:100A20000A0D3E3E20000000000000202DE9F041AC
:100A300004461B4E1B4D0027207800282ED0002096
:100A400020702946304600F06DF806462846FFF72C
:100A50007FFF154981F800012946304600F062F811
:100A6000064611492846FFF78FFF07460E4890F8C3
:100A70000001012802D0022808D103E00B4800F051
:100A80004BF807E00A4800F047F803E009A000F03F
:100A900043F800BF00BF0CA000F03EF8BDE8F081B5
:100AA000600500206006002054020020D00C0008E1
:100AB000840C0008756E6B6E6F776E20636F6D6DC2
:100AC000616E64210A0D00000A0D3E3E2000000008
:100AD00010B50446214602480068FFF7FFFE10BD2E
:100AE0000C00002010B50446214602480068FFF7BC
:100AF000E5FE10BD0C00002010B5002105E010F847
:100B0000014B0A46491C034B9C540278002AF6D13B
:100B100010BD00006005002010B504462046FFF718
:100B2000D7FF10BD70B504460D4620210A48FFF7D7
:100B3000ADFB094D2078202800D1641C03E014F897
:100B4000010B05F8010B2078202802D0207800281E
:100B5000F5D1204670BD0000600600204FEA115319
:100B6000A3F58063D3F11E03A8BFD3F1200C08DBEB
:100B70004FF0004242EAC12252EA505232FA03F0E8
:100B8000704709420BD4102BC4BF0020704703F5F7
:100B9000787CBCF1FF3F05D04FF0FF3070474FF03D
:100BA0000000704770B500F019F800BF499224802A
:100BB00000207047F0E7B0FA80F310FA03F10AD092
:100BC000C3F11D0303F580634FEA41504FEA03521E
:100BD00002EBD12170474FF0000070470EF1020E7A
:100BE0002EF0030E5EF8046B364205D4012A43EB67
:100BF000030515F5001F12D8012841EB010C1CF567
:100C0000001F0CD80ED14FEAD17C15F5001F0CEB5C
:100C10004C0C0CF1020C08BF4CEBD37C04E04FF001
:100C2000080C01E04FEAD37C0CEB4C0526FA05F6E4
:100C300006F00706B6F1040C06D20EEB860CBDE8F2
:100C400070404CF0010C6047DFE80CF0090B020229
:100C50004FF000414FF00000A1F5002170BD194692
:100C60001046012851EB010418BFD4F5001484BFCD
:100C7000002001F0004170BD4FF04070E1EE100A1D
:100C8000704700006C697374206F6620636F6D6D30
:100C9000616E64730A0D313A2068656C70202D20F6
:100CA00067656E6572616C2068656C700A0D323A1A
:100CB000206C697374202D20676574206C697374CF
:100CC000206F662073797374656D0A0D0000000053
:100CD00023232323232323232323232323232323E4
:100CE00023232323232323232323232323232323D4
:100CF00023232323232323232323232323232323C4
:100D0000230A0D2320202020202020202020202006
:100D100020202020202020202020202020202020D3
:100D200020202020202020202020202020202020C3
:100D3000202020230A0D23202020202023232020D0
:100D4000202323202323232323232020232323237F
:100D50002020232323232320202023232323232075
:100D6000202020202020230A0D23202020202F2F88
:100D70002320232F2F2020202F2F2020202F2F2013
:100D8000202020202F2F20202F2F202F2F20202009
:100D90002F2F20202020202020230A0D2320202058
:100DA0002F2F2023202F2F2020202F2F2020202FD7
:100DB0002F2020202020232323232320202F2F20F7
:100DC00020202F2F2020202020202020230A0D2328
:100DD00020202F2F2020202F2F2020202F2F2020B9
:100DE000202F2F20202020202F2F20232020202FB5
:100DF0002F2020202F2F20202020202020202023C3
:100E00000A0D23202F2F2020202F2F2023232323C0
:100E1000232320202323232320202F2F202020239F
:100E200020202323232323202020202020202020B3
:100E30002020230A0D2320202020202020202020D5
:100E400020202020202020202020202020202020A2
:100E50002020202020202020202020202020202092
:100E60002020202020230A0D23202020202023239F
:100E70002323232020202323232320202023232354
:100E8000232320202023232323232023232323233E
:100E90002320232323232320230A0D232020202063
:100EA0002F2F20202F2F202F2F2020202F2F202FBB
:100EB0002F20202F2F202F2F20202020202F2F20C9
:100EC000202020202F2F20202F2F20230A0D232009
:100ED00020202323232323202023232323232323EE
:100EE00020232323232320202023232323202023E4
:100EF0002323232323202323232323202020230AE7
:100F00000D2320202F2F20202020202F2F202020B5
:100F10002F2F202F2F2023202020202020202F2F74
:100F2000202F2F20202020202F2F20232020202082
:100F300020230A0D23202F2F20202020202F2F2098
:100F400020202F2F202F2F20202023202323232356
:100F5000232020232323232323202F2F202020235B
:100F600020202020230A0D232020202020202020A4
:100F70002020202020202020202020202020202071
:100F80002020202020202020202020202020202061
:100F900020202020202020230A0D23232323232365
:100FA0002323232323232323232323232323232311
:100FB0002323232323232323232323232323232301
:100FC00023232323232323232323230A0D0A0D531F
:100FD0007472756374757265206F6620636F6D6DD2
:100FE000616E643A200A0D5B636F6D6D616E645DC6
:100FF000205B2D705D205B617267756D656E745D41
:101000000A0D202D2D2D2D2D2D2D2D2D2D2D2D2D60
:101010002D2D2D2D2D2D2D2D2D2D0A0D5B636F6D5D
:101020006D616E645D202D20776F7264206F662085
:101030007365766572616C207369676E73202865CD
:1010400078616D706C653A2068656C702C206C6FEF
:10105000672C207365742C2073656E642E2E2E29E8
:101060000A0D5B2D705D202D20706172616D6574BD
:101070006572206F6620636F6D6D616E642C2069F0
:101080007420636F6E7461696E7320616E206F6E81
:101090006C79207369676E20286578616D706C6566
:1010A0003A202D702C202D6D2E2E2E20290A0D5B1E
:1010B000617267756D656E745D202D20776F726447
:1010C000206F66206E756D65726963206F72207384
:1010D000796D626F6C6963207369676E7320746FDA
:1010E000207370656369616C697A6520636F6D6DEB
:1010F000616E64730A0D00001811000800000020E2
:1011000054000000C40100086C11000854000020C5
:101110008C0C0000E00100080000000054000020DA
:101120005301002000000000756E6B6E6F776E003B
:10113000000000000000000068656C700000000006
:1011400000000000000000006C69737400000000E3
:10115000000000000000000020000000000000006F
:0C1160000000680000000000000000001B
:040000050800018965
:00000001FF
