:020000040800F2
:10000000C80C002029020008310200083302000851
:10001000350200083702000839020008000000001D
:100020000000000000000000000000003B0200088B
:100030003D020008000000003F02000841020008E5
:10004000430200084302000843020008430200087C
:10005000430200084302000843020008430200086C
:10006000430200084302000843020008430200085C
:10007000430200084302000843020008430200084C
:10008000430200084302000843020008430200083C
:10009000430200084302000843020008430200082C
:1000A000430200084302000843020008430200081C
:1000B000430200084302000843020008430200080C
:1000C00043020008430200084302000843020008FC
:1000D00043020008430200084302000843020008EC
:1000E00043020008430200084302000843020008DC
:1000F00043020008430200084302000843020008CC
:1001000043020008430200084302000843020008BB
:1001100043020008430200084302000843020008AB
:10012000430200084302000843020008430200089B
:10013000430200084302000843020008430200088B
:10014000430200084302000843020008430200087B
:10015000430200084302000843020008F1060008B9
:10016000430200084302000843020008430200085B
:10017000430200084302000843020008430200084B
:10018000430200084302000800F002F800F03CF8C7
:100190000AA090E8000C82448344AAF10107DA45E2
:1001A00001D100F031F8AFF2090EBAE80F0013F0F8
:1001B000010F18BFFB1A43F001031847CC0B0000D6
:1001C000EC0B0000103A24BF78C878C1FAD8520767
:1001D00024BF30C830C144BF04680C6070470000C1
:1001E0000023002400250026103A28BF78C1FBD840
:1001F000520728BF30C148BF0B6070471FB500F0E1
:10020000BFFC1FBD10B510BD00F083F81146FFF70D
:10021000F5FF00F097FB00F0A1F803B4FFF7F2FF41
:1002200003BC00F0A9F800000948804709480047CE
:10023000FEE7FEE7FEE7FEE7FEE7FEE7FEE7FEE796
:10024000FEE7FEE704480549054A064B70470000F3
:100250008906000889010008C8060020C80C002093
:10026000C8080020C808002030B505460B462A46BD
:1002700013F8014B12F8010B08B1A042F8D01CB1E1
:10028000002802D06D1CF1E7284630BD4FF0013C3C
:1002900050F8042B51F8043B9A4221D1A2EB0C03F5
:1002A000934313EACC1317D150F8042B51F8043BB5
:1002B0009A4215D1A2EB0C03934313EACC130BD152
:1002C00050F8042B51F8043B9A4209D1A2EB0C03DD
:1002D000934313EACC13DBD04FF00000704700BF0C
:1002E000D01A01BAB1FA81F101F0180122FA01F035
:1002F000CB40C1F12001DBB2C0B2C01A2CFA01F32D
:10030000D11A914311EAC311E6D170477047704783
:100310007047754600F02CF8AE4605006946534616
:1003200020F00700854618B020B5FFF78BFFBDE829
:1003300020404FF000064FF000074FF000084FF04C
:10034000000B21F00701AC46ACE8C009ACE8C009DD
:10035000ACE8C009ACE8C0098D46704710B504464A
:10036000AFF300802046BDE81040FFF756BF000005
:10037000004870476806002001491820ABBEFEE720
:1003800026000200704700004D48006840F00F0052
:100390004B4908604B48006820F4405049490860C8
:1003A0000846006840F400500860081D006820F00E
:1003B0004000091D086043480C30006820F440509C
:1003C00040490C3108600846006840F480500860DD
:1003D000081F006820F44050091F086008460068A4
:1003E00040F4405008603748006820F440403549E8
:1003F00008600846006840F400400860081D006876
:1004000020F08000091D08602E480C30006820F4A0
:1004100040402C490C310860081F006820F440401F
:10042000091F08600846006840F4404008602648FC
:10043000006820F04040244908600846006840F009
:1004400080400860081D006820F40040091D086015
:100450001D480C30006820F040401B490C310860FA
:10046000081F006820F04040091F08600846006827
:1004700040F0404008601448006820F040501249A5
:1004800008600846006840F080500860081D006859
:1004900020F48040091D08600B480C30006820F0F3
:1004A000405009490C310860081F006820F0405096
:1004B000091F08600846006840F040500860704717
:1004C0003038024000080240000C024000F01F02D9
:1004D000012191404209920002F1E022C2F800118C
:1004E000704700001C48006840F090001A490860FE
:1004F0000846006820F0F00008600846006820F018
:10050000030008600846006840F0020008600846E2
:10051000006820F4E05008600846006840F4A050ED
:1005200008600846006820F4E0500860084600684B
:10053000086009480838006840F0807006490839AA
:100540000860081D006820F48000091D0860084646
:100550000068086070470000083802400CB50020B1
:10056000019000903448006840F4803032490860BF
:1005700000BF3148006800F4003000900198401C32
:100580000190009818B90198B0F5A04FF1D12A4810
:10059000006800F4003010B10120009001E000205C
:1005A00000900098012846D123484030006840F070
:1005B00080502149403108602048006840F44040A4
:1005C0001E4908601C48083000681B490831086053
:1005D0000846006840F4004008600846006840F49F
:1005E000A05008601648091F0860081F006840F006
:1005F0008070091F086000BF0F48006800F000709D
:100600000028F9D040F205700E4908600A48083009
:10061000006820F0030008490831086008460068B7
:1006200040F00200086000BF03480830006800F096
:100630000C000828F8D10CBD0038024000700040C2
:1006400008304004003C0240F0B54D07ED0E02FAC0
:1006500005F3456A4E07F70E0F26BE40B5434562C7
:10066000084DCE1055F8265045EA0304CE1000F18F
:10067000200555F826502543CF1000F1200646F8F6
:100680002750F0BD200C024010B51548006840F41A
:100690007000134908601348006840F001001149D8
:1006A000086000200F49083108600E4800680E49B4
:1006B00008400C4908600D48091D0860081F0068C3
:1006C00020F48020091F0860002006490C310860D2
:1006D000FFF744FF4FF0006001498039086010BD0A
:1006E00088ED00E000380240FFFFF6FE10300024E5
:1006F00010B500241E48008840F020001C490880E6
:10070000081D0088C4B20D2C0DD11AA000F082F98A
:1007100019481A49086000F091F900F0E5F8012045
:10072000174908701DE07F2C10D114480068124949
:10073000884216D97F2000F077F910480068401EE3
:100740000E4908600020096808700AE0204600F0A1
:100750006BF90A480068047008480068401C0749A3
:1007600008600848006880F480400649086010BDB1
:10077000001401400A0D0000540000200400002075
:1007800000000020140C024010B50446304884429A
:1007900005D13048006840F010002E4908602E480E
:1007A000844207D12B48001F006840F400302949DB
:1007B000091F08602948844207D12648001F0068A5
:1007C00040F480202349091F08602548844205D150
:1007D0002048006840F020001E490860A08920F4ED
:1007E0008050A081208A20F4405020821D494FF47F
:1007F000E13000F061F82081A08940F00400A08180
:10080000A08940F00800A081A08940F02000A081CC
:10081000A08940F40050A0810D48844202D12520D7
:10082000FFF754FE0C48844202D12620FFF74EFE0B
:100830000A48844202D12720FFF748FE0848844234
:1008400002D14720FFF742FE0748046010BD0000B8
:10085000001001404438024000440040004800407D
:1008600000140140006CDC020C000020818000BFFD
:10087000028802F04002002AFAD0034A126882F489
:100880000042014B1A607047140C02400EE011F850
:10089000012B828000BF028802F04002002AFAD0B9
:1008A000044A126882F40042024B1A600A78002A55
:1008B000EDD17047140C02402DE9F0412DED028B73
:1008C00004460D46B5FBF4F7384600F0F8F841EC65
:1008D000180B51EC180B00F0C5F806463046BDEC7D
:1008E000028BBDE8F0810000002003E00021034AF4
:1008F0001154401CFF28F9DB704700005400002011
:100900002DE9F041054600262F46002411E00B4852
:1009100000EB04110A48FFF7A7FC48B1074800EBB9
:1009200004110748FFF7B2FC10B9E0B2BDE8F0814E
:10093000641C032CEBDB0020F8E700001000002013
:100940006805002062B6FFF7CDFDFFF71DFD0D48DD
:10095000006820F440400B4908600B48FFF714FF83
:10096000082206210948FFF76FFE082207210748E1
:10097000FFF76AFE06A000F04DF802E0064800F01E
:100980000DF8FBE7140C024000140140000802407F
:100990000A0D3E3E200000000000002010B5044675
:1009A0002078F8B1002020700F48FFF7A9FF0F4909
:1009B00081F80001084690F80001012802D00228C1
:1009C00008D103E00A4800F047F807E0094800F0C2
:1009D00043F803E008A000F03FF800BF00BF0BA001
:1009E00000F03AF810BD0000680500205402002015
:1009F0008C0B0008EC0B0008756E6B6E6F776E2029
:100A0000636F6D6D616E64210A0D00000A0D3E3E3C
:100A10002000000010B50446214602480068FFF798
:100A200035FF10BD0C00002010B5044621460248D9
:100A30000068FFF71BFF10BD0C00002001460020DE
:100A400004E011F8012B034B1A54401CFF28F8DB7B
:100A5000704700006805002010B504462046FFF7E7
:100A6000D9FF10BD4FEA1153A3F58063D3F11E03E4
:100A7000A8BFD3F1200C08DB4FF0004242EAC122AC
:100A800052EA505232FA03F0704709420BD4102B4D
:100A9000C4BF0020704703F5787CBCF1FF3F05D050
:100AA0004FF0FF3070474FF00000704770B500F016
:100AB00019F800BF4992248000207047F0E7B0FA8F
:100AC00080F310FA03F10AD0C3F11D0303F580632C
:100AD0004FEA41504FEA035202EBD12170474FF0E9
:100AE000000070470EF1020E2EF0030E5EF8046B4C
:100AF000364205D4012A43EB030515F5001F12D831
:100B0000012841EB010C1CF5001F0CD80ED14FEA57
:100B1000D17C15F5001F0CEB4C0C0CF1020C08BF3E
:100B20004CEBD37C04E04FF0080C01E04FEAD37C9F
:100B30000CEB4C0526FA05F606F00706B6F1040C98
:100B400006D20EEB860CBDE870404CF0010C6047FD
:100B5000DFE80CF0090B02024FF000414FF00000FB
:100B6000A1F5002170BD19461046012851EB010482
:100B700018BFD4F5001484BF002001F0004170BDFF
:100B80004FF04070E1EE100A704700002D2D2D202F
:100B900068656C70202D2D2D0A0D6C697374206FA3
:100BA0006620636F6D6D616E64730A0D313A206863
:100BB000656C70202D2067656E6572616C20636FB7
:100BC0006D6D616E64206C6973740A0D323A206C2D
:100BD0006F6720202D20676574206C6F67206F661B
:100BE0002073797374656D0A0D0000002D2D2D2082
:100BF0006C6F67202D2D2D0A0D2020202023202012
:100C000020232023232323232020232323232023C3
:100C1000232323202020232323200A0D2020202FDC
:100C20002320232F2020202F2020202F2020202091
:100C3000202F2020202F202F2020202F0A0D2020A1
:100C40002F2023202F2020202F2020202F20202065
:100C500020202323232320202F2020202F0A0D2093
:100C60002F2020202F2020202F2020202F20202048
:100C700020202F20232020202F2020202F0A0D2F5E
:100C80002020202F2023232323232020232323233A
:100C9000202F202020232020232323200A0D0A0D8B
:100CA000202020202323232320202023232320202F
:100CB0002323232320202023232323202323232310
:100CC000232023232323200A0D2020202F2020202F
:100CD0002F202F2020202F202F2020202F202F20BA
:100CE000202020202F20202020202F2020202F0AED
:100CF0000D202023232323202023232323232023E9
:100D000023232320202023232320202323232323C2
:100D10002023232323200A0D202F20202020202FD2
:100D20002020202F202F2023202020202020202F93
:100D3000202F20202020202F202320200A0D2F20AC
:100D4000202020202F2020202F202F202020232073
:100D50002323232320202323232323202F20202069
:100D6000230A0D0A0D74696E795F70617273657282
:100D700020666F72206D6963726F636F6E74726F3D
:100D80006C6C65720A0D0000A80D000800000020C0
:100D900054000000C4010008FC0D000854000020AD
:100DA000740C0000E0010008000000005400002066
:100DB0005301002000000000756E6B6E6F776E00AF
:100DC000000000000000000068656C70000000007A
:100DD00000000000000000006C6F670000000000D1
:100DE00000000000000000002100000000000000E2
:0C0DF000000000000000000000000000F7
:040000050800018965
:00000001FF
