:020000040800F2
:10000000C80C002029020008310200083302000851
:10001000350200083702000839020008000000001D
:100020000000000000000000000000003B0200088B
:100030003D020008000000003F02000841020008E5
:10004000430200084302000843020008430200087C
:10005000430200084302000843020008430200086C
:10006000430200084302000843020008430200085C
:10007000430200084302000843020008430200084C
:10008000430200084302000843020008430200083C
:10009000430200084302000843020008430200082C
:1000A000430200084302000843020008430200081C
:1000B000430200084302000843020008430200080C
:1000C00043020008430200084302000843020008FC
:1000D00043020008430200084302000843020008EC
:1000E00043020008430200084302000843020008DC
:1000F00043020008430200084302000843020008CC
:1001000043020008430200084302000843020008BB
:1001100043020008430200084302000843020008AB
:10012000430200084302000843020008430200089B
:10013000430200084302000843020008430200088B
:10014000430200084302000843020008430200087B
:100150004302000843020008430200083907000870
:10016000430200084302000843020008430200085B
:10017000430200084302000843020008430200084B
:10018000430200084302000800F002F800F03CF8C7
:100190000AA090E8000C82448344AAF10107DA45E2
:1001A00001D100F031F8AFF2090EBAE80F0013F0F8
:1001B000010F18BFFB1A43F001031847780A00002B
:1001C000980A0000103A24BF78C878C1FAD85207BC
:1001D00024BF30C830C144BF04680C6070470000C1
:1001E0000023002400250026103A28BF78C1FBD840
:1001F000520728BF30C148BF0B6070471FB500F0E1
:10020000E3FC1FBD10B510BD00F0A7F81146FFF7C5
:10021000F5FF00F0BDFB00F0C5F803B4FFF7F2FFF7
:1002200003BC00F0CDF800000948804709480047AA
:10023000FEE7FEE7FEE7FEE7FEE7FEE7FEE7FEE796
:10024000FEE7FEE704480549054A064B70470000F3
:10025000D106000889010008C8060020C80C00204B
:10026000C8080020C808002030B505460B462A46BD
:1002700013F8014B12F8010B08B1A042F8D01CB1E1
:10028000002802D06D1CF1E7284630BD40EA01038A
:10029000024630B59B0710D14FF0013400E008C290
:1002A00008C91D1B9D4315EAC41FF8D013F0FF01B8
:1002B00002F8011B0DD01B0AF8E711F8013B002BD7
:1002C00002F8013B05D011F8013B002B02F8013B7D
:1002D000F3D130BD4FF0013C50F8042B51F8043BF2
:1002E0009A4221D1A2EB0C03934313EACC1317D10A
:1002F00050F8042B51F8043B9A4215D1A2EB0C03A1
:10030000934313EACC130BD150F8042B51F8043B60
:100310009A4209D1A2EB0C03934313EACC13DBD02E
:100320004FF00000704700BFD01A01BAB1FA81F156
:1003300001F0180122FA01F0CB40C1F12001DBB23B
:10034000C0B2C01A2CFA01F3D11A914311EAC311B9
:10035000E6D17047704770477047754600F02CF83B
:10036000AE4605006946534620F00700854618B0A2
:1003700020B5FFF767FFBDE820404FF000064FF0C3
:1003800000074FF000084FF0000B21F00701AC46CA
:10039000ACE8C009ACE8C009ACE8C009ACE8C009E9
:1003A0008D46704710B50446AFF300802046BDE887
:1003B0001040FFF732BF0000004870476806002079
:1003C00001491820ABBEFEE726000200704700007E
:1003D0004D48006840F00F004B4908604B480068EA
:1003E00020F44050494908600846006840F4005035
:1003F0000860081D006820F04000091D086043489F
:100400000C30006820F4405040490C310860084628
:10041000006840F480500860081F006820F44050D5
:10042000091F08600846006840F4405008603748DB
:10043000006820F44040354908600846006840F4F0
:1004400000400860081D006820F08000091D086059
:100450002E480C30006820F440402C490C310860D4
:10046000081F006820F44040091F08600846006823
:1004700040F4404008602648006820F0404024498D
:1004800008600846006840F080400860081D006869
:1004900020F40040091D08601D480C30006820F061
:1004A00040401B490C310860081F006820F04040A4
:1004B000091F08600846006840F040400860144882
:1004C000006820F04050124908600846006840F07B
:1004D00080500860081D006820F48040091D0860F5
:1004E0000B480C30006820F0405009490C3108607E
:1004F000081F006820F04050091F08600846006887
:1005000040F0405008607047303802400008024018
:10051000000C024000F01F020121914042099200AC
:1005200002F1E022C2F80011704700001C48006888
:1005300040F090001A4908600846006820F0F0007A
:1005400008600846006820F003000860084600685C
:1005500040F0020008600846006820F4E05008609F
:100560000846006840F4A05008600846006820F47F
:10057000E0500860084600680860094808380068CC
:1005800040F08070064908390860081D006820F4B2
:100590008000091D08600846006808607047000078
:1005A000083802400CB500200190009034480068E3
:1005B00040F480303249086000BF3148006800F4E0
:1005C000003000900198401C0190009818B90198E3
:1005D000B0F5A04FF1D12A48006800F4003010B106
:1005E0000120009001E0002000900098012846D1F1
:1005F00023484030006840F0805021494031086075
:100600002048006840F440401E4908601C480830FB
:1006100000681B49083108600846006840F4004043
:1006200008600846006840F4A05008601648091F9A
:100630000860081F006840F08070091F086000BF54
:100640000F48006800F000700028F9D040F20570F3
:100650000E4908600A480830006820F00300084985
:10066000083108600846006840F00200086000BFDA
:1006700003480830006800F00C000828F8D10CBDD1
:10068000003802400070004008304004003C024046
:10069000F0B54D07ED0E02FA05F3456A4E07F70E69
:1006A0000F26BE40B5434562084DCE1055F8265082
:1006B00045EA0304CE1000F1200555F826502543E5
:1006C000CF1000F1200646F82750F0BD200C024064
:1006D00010B51548006840F47000134908601348CD
:1006E000006840F001001149086000200F490831FE
:1006F00008600E4800680E4908400C4908600D4823
:10070000091D0860081F006820F48020091F086088
:10071000002006490C310860FFF744FF4FF00060ED
:1007200001498039086010BD88ED00E000380240C2
:10073000FFFFF6FE1030002410B500241E4800888C
:1007400040F020001C490880081D0088C4B20D2C10
:100750000DD11AA000F082F919481A49086000F07A
:1007600091F900F0E5F80120174908701DE07F2C91
:1007700010D1144800681249884216D97F2000F031
:1007800077F910480068401E0E490860002009688B
:1007900008700AE0204600F06BF90A48006804700F
:1007A00008480068401C074908600848006880F451
:1007B00080400649086010BD001401400A0D000089
:1007C000540000200400002000000020140C02400F
:1007D00010B504463048844205D13048006840F0E6
:1007E00010002E4908602E48844207D12B48001F74
:1007F000006840F400302949091F086029488442F4
:1008000007D12648001F006840F480202349091FB3
:1008100008602548844205D12048006840F0200047
:100820001E490860A08920F48050A081208A20F40D
:10083000405020821D494FF4E13000F061F82081E2
:10084000A08940F00400A081A08940F00800A081A8
:10085000A08940F02000A081A08940F40050A08130
:100860000D48844202D12520FFF754FE0C488442F3
:1008700002D12620FFF74EFE0A48844202D12720EB
:10088000FFF748FE0848844202D14720FFF742FEA6
:100890000748046010BD00000010014044380240C9
:1008A000004400400048004000140140006CDC029D
:1008B0000C000020818000BF028802F04002002A64
:1008C000FAD0034A126882F40042014B1A60704762
:1008D000140C02400EE011F8012B828000BF028848
:1008E00002F04002002AFAD0044A126882F4004260
:1008F000024B1A600A78002AEDD17047140C0240AE
:100900002DE9F0412DED028B04460D46B5FBF4F7C1
:10091000384600F0F8F841EC180B51EC180B00F0D9
:10092000C5F806463046BDEC028BBDE8F0810000FC
:10093000002003E00021034A1154401CFF28F9DB8A
:10094000704700005400002070B50546002416E0F2
:100950000D4800EB04112846FFF786FC70B10A48E9
:1009600000EB04112846FFF7B5FC38B9064800EB48
:1009700004110648FFF78AFCE0B270BD641C032C2A
:10098000E6DB0020F9E70000100000205402002000
:1009900062B6FFF7CBFDFFF71BFD0E48006820F4A1
:1009A00040400C4908600C48FFF712FF082206215E
:1009B0000A48FFF76DFE082207210848FFF768FE86
:1009C00007A000F04BF803E00749084800F010F8D2
:1009D000FAE70000140C0240001401400008024035
:1009E0000A0D3E3E200000005301002000000020C0
:1009F00070B504460D462078E0B1002020702846EE
:100A0000FFF7A2FF0C4981F80001084690F80001A9
:100A1000012802D0022805D103E0084800F040F880
:100A200004E003E006A000F03BF800BF00BF09A00F
:100A300000F036F870BD000054020020D40B00080E
:100A4000756E6B6E6F776E20636F6D6D616E642176
:100A50000A0D00000A0D3E3E2000000010B50446BD
:100A6000214602480068FFF735FF10BD0C0000204A
:100A700010B50446214602480068FFF71BFF10BD71
:100A80000C0000200146002004E011F8012B034B6C
:100A90001A54401CFF28F8DB70470000680500204E
:100AA00010B504462046FFF7D9FF10BD4FEA115399
:100AB000A3F58063D3F11E03A8BFD3F1200C08DB9C
:100AC0004FF0004242EAC12252EA505232FA03F099
:100AD000704709420BD4102BC4BF0020704703F5A8
:100AE000787CBCF1FF3F05D04FF0FF3070474FF0EE
:100AF0000000704770B500F019F800BF49922480DB
:100B000000207047F0E7B0FA80F310FA03F10AD042
:100B1000C3F11D0303F580634FEA41504FEA0352CE
:100B200002EBD12170474FF0000070470EF1020E2A
:100B30002EF0030E5EF8046B364205D4012A43EB17
:100B4000030515F5001F12D8012841EB010C1CF517
:100B5000001F0CD80ED14FEAD17C15F5001F0CEB0D
:100B60004C0C0CF1020C08BF4CEBD37C04E04FF0B2
:100B7000080C01E04FEAD37C0CEB4C0526FA05F695
:100B800006F00706B6F1040C06D20EEB860CBDE8A3
:100B900070404CF0010C6047DFE80CF0090B0202DA
:100BA0004FF000414FF00000A1F5002170BD194643
:100BB0001046012851EB010418BFD4F5001484BF7E
:100BC000002001F0004170BD4FF04070E1EE100ACE
:100BD000704700002D2D2D2068656C70202D2D2D67
:100BE0000A0D6C697374206F6620636F6D6D616EA2
:100BF00064730A0D313A2068656C70202D2067659A
:100C00006E6572616C20636F6D6D616E64206C69DE
:100C100073740A0D323A206C6F6720202D206765AF
:100C200074206C6F67206F662073797374656D0A2A
:100C30000D000000540C00080000002054000000CB
:100C4000C4010008A80C000854000020740C000027
:100C5000E0010008000000005400002053010020C3
:100C600000000000756E6B6E6F776E68656C706C5F
:100C70006F6700000000000000000000000000009E
:100C80000000000000000000000000000000000064
:100C900000000000730000000000000000000000E1
:080CA00000000000000000004C
:040000050800018965
:00000001FF
